:100000000EC015C014C013C012C011C010C00FC064
:100010000EC00DC00CC00BC00AC009C008C011241E
:100020001FBECFE5D2E0DEBFCDBF02D036C0E8CFE5
:10003000B89AB99ABA9A61E034E651E02CE341E00B
:1000400094E18AE0981710F4C09801C0C09A28176C
:1000500010F4C19801C0C19A381710F4C29801C0B9
:10006000C29A8F5F883C71F7940F943620F49531D3
:1000700018F441E001C04FEF250F243620F425315C
:1000800018F451E001C05FEF360F343610F06FEF17
:0E009000D8CF3531B0F661E0D4CFF894FFCF71
:00000001FF
